{
  "contractName": "Plant",
  "abi": [
    {
      "constant": false,
      "inputs": [
        {
          "name": "name",
          "type": "string"
        }
      ],
      "name": "addNewJoiner",
      "outputs": [],
      "payable": false,
      "stateMutability": "nonpayable",
      "type": "function",
      "signature": "0x56ceaea9"
    },
    {
      "constant": false,
      "inputs": [
        {
          "name": "name",
          "type": "string"
        },
        {
          "name": "times",
          "type": "uint8"
        }
      ],
      "name": "addNewPublisher",
      "outputs": [],
      "payable": false,
      "stateMutability": "nonpayable",
      "type": "function",
      "signature": "0xf0ec254b"
    },
    {
      "constant": false,
      "inputs": [
        {
          "name": "name",
          "type": "string"
        },
        {
          "name": "projectTime",
          "type": "uint8"
        },
        {
          "name": "count",
          "type": "uint8"
        },
        {
          "name": "jobTime",
          "type": "uint8"
        },
        {
          "name": "publisher",
          "type": "string"
        }
      ],
      "name": "addNewProject",
      "outputs": [],
      "payable": false,
      "stateMutability": "nonpayable",
      "type": "function",
      "signature": "0xc6b1ca25"
    },
    {
      "constant": true,
      "inputs": [
        {
          "name": "aname",
          "type": "string"
        }
      ],
      "name": "showAProject",
      "outputs": [
        {
          "name": "a",
          "type": "address"
        },
        {
          "name": "name",
          "type": "string"
        },
        {
          "name": "projectTime",
          "type": "uint8"
        },
        {
          "name": "projectMaxCount",
          "type": "uint8"
        },
        {
          "name": "projectJobTime",
          "type": "uint8"
        },
        {
          "name": "publisher",
          "type": "string"
        },
        {
          "name": "str",
          "type": "string"
        },
        {
          "name": "isOpen",
          "type": "bool"
        }
      ],
      "payable": false,
      "stateMutability": "view",
      "type": "function",
      "signature": "0x88b1d61a"
    },
    {
      "constant": true,
      "inputs": [],
      "name": "showProject",
      "outputs": [
        {
          "name": "a",
          "type": "address"
        },
        {
          "name": "name",
          "type": "string"
        },
        {
          "name": "projectTime",
          "type": "uint8"
        },
        {
          "name": "projectMaxCount",
          "type": "uint8"
        },
        {
          "name": "projectJobTime",
          "type": "uint8"
        },
        {
          "name": "publisher",
          "type": "string"
        },
        {
          "name": "str",
          "type": "string"
        },
        {
          "name": "isOpen",
          "type": "bool"
        }
      ],
      "payable": false,
      "stateMutability": "view",
      "type": "function",
      "signature": "0xba5d2043"
    },
    {
      "constant": false,
      "inputs": [
        {
          "name": "joiner",
          "type": "string"
        },
        {
          "name": "project",
          "type": "string"
        }
      ],
      "name": "addInProject",
      "outputs": [
        {
          "name": "isJoined",
          "type": "bool"
        }
      ],
      "payable": false,
      "stateMutability": "nonpayable",
      "type": "function",
      "signature": "0x8040f037"
    },
    {
      "constant": false,
      "inputs": [
        {
          "name": "project",
          "type": "string"
        }
      ],
      "name": "finishProject",
      "outputs": [
        {
          "name": "isSend",
          "type": "bool"
        }
      ],
      "payable": true,
      "stateMutability": "payable",
      "type": "function",
      "signature": "0xe343b5ba"
    },
    {
      "constant": true,
      "inputs": [],
      "name": "showJoiner",
      "outputs": [
        {
          "name": "a",
          "type": "address"
        },
        {
          "name": "name",
          "type": "string"
        },
        {
          "name": "times",
          "type": "uint8"
        },
        {
          "name": "str",
          "type": "string"
        }
      ],
      "payable": false,
      "stateMutability": "view",
      "type": "function",
      "signature": "0x2d911214"
    },
    {
      "constant": true,
      "inputs": [
        {
          "name": "aname",
          "type": "string"
        }
      ],
      "name": "showAJoiner",
      "outputs": [
        {
          "name": "a",
          "type": "address"
        },
        {
          "name": "name",
          "type": "string"
        },
        {
          "name": "times",
          "type": "uint8"
        },
        {
          "name": "str",
          "type": "string"
        }
      ],
      "payable": false,
      "stateMutability": "view",
      "type": "function",
      "signature": "0x1367cc6e"
    },
    {
      "constant": true,
      "inputs": [
        {
          "name": "add",
          "type": "string"
        }
      ],
      "name": "showAPublisher",
      "outputs": [
        {
          "name": "a",
          "type": "address"
        },
        {
          "name": "name",
          "type": "string"
        },
        {
          "name": "times",
          "type": "uint8"
        },
        {
          "name": "str",
          "type": "string"
        }
      ],
      "payable": false,
      "stateMutability": "view",
      "type": "function",
      "signature": "0xa6fe2eb7"
    },
    {
      "constant": true,
      "inputs": [],
      "name": "showPublisher",
      "outputs": [
        {
          "name": "a",
          "type": "address"
        },
        {
          "name": "name",
          "type": "string"
        },
        {
          "name": "times",
          "type": "uint8"
        },
        {
          "name": "str",
          "type": "string"
        }
      ],
      "payable": false,
      "stateMutability": "view",
      "type": "function",
      "signature": "0x99fe54ec"
    },
    {
      "constant": false,
      "inputs": [
        {
          "name": "fromP",
          "type": "string"
        },
        {
          "name": "toJ",
          "type": "string"
        },
        {
          "name": "times",
          "type": "uint8"
        }
      ],
      "name": "send",
      "outputs": [
        {
          "name": "isSend",
          "type": "bool"
        }
      ],
      "payable": true,
      "stateMutability": "payable",
      "type": "function",
      "signature": "0x4af5a120"
    },
    {
      "constant": true,
      "inputs": [],
      "name": "showAllJoiners",
      "outputs": [
        {
          "name": "str",
          "type": "string"
        }
      ],
      "payable": false,
      "stateMutability": "view",
      "type": "function",
      "signature": "0x8f24b44d"
    },
    {
      "constant": true,
      "inputs": [],
      "name": "showAllPublishers",
      "outputs": [
        {
          "name": "str",
          "type": "string"
        }
      ],
      "payable": false,
      "stateMutability": "view",
      "type": "function",
      "signature": "0x20d56acd"
    },
    {
      "constant": true,
      "inputs": [],
      "name": "showAllProjects",
      "outputs": [
        {
          "name": "str",
          "type": "string"
        }
      ],
      "payable": false,
      "stateMutability": "view",
      "type": "function",
      "signature": "0x65d7d8bf"
    },
    {
      "constant": true,
      "inputs": [
        {
          "name": "a",
          "type": "string"
        },
        {
          "name": "b",
          "type": "string"
        }
      ],
      "name": "stringAdd",
      "outputs": [
        {
          "name": "",
          "type": "string"
        }
      ],
      "payable": false,
      "stateMutability": "pure",
      "type": "function",
      "signature": "0x0911a37c"
    }
  ],
  "bytecode": "0x608060405234801561001057600080fd5b50614113806100206000396000f3006080604052600436106100e6576000357c0100000000000000000000000000000000000000000000000000000000900463ffffffff1680630911a37c146100eb5780631367cc6e1461012857806320d56acd146101685780632d911214146101935780634af5a120146101c157806356ceaea9146101f157806365d7d8bf1461021a5780638040f0371461024557806388b1d61a146102825780638f24b44d146102c657806399fe54ec146102f1578063a6fe2eb71461031f578063ba5d20431461035f578063c6b1ca2514610391578063e343b5ba146103ba578063f0ec254b146103ea575b600080fd5b3480156100f757600080fd5b50610112600480360361010d9190810190613c70565b610413565b60405161011f9190613fba565b60405180910390f35b34801561013457600080fd5b5061014f600480360361014a9190810190613c2f565b6105d1565b60405161015f9493929190613eb9565b60405180910390f35b34801561017457600080fd5b5061017d610928565b60405161018a9190613fba565b60405180910390f35b34801561019f57600080fd5b506101a8610b20565b6040516101b89493929190613eb9565b60405180910390f35b6101db60048036036101d69190810190613cdc565b610e80565b6040516101e89190613f9f565b60405180910390f35b3480156101fd57600080fd5b5061021860048036036102139190810190613c2f565b6111ac565b005b34801561022657600080fd5b5061022f6114e8565b60405161023c9190613fba565b60405180910390f35b34801561025157600080fd5b5061026c60048036036102679190810190613c70565b6116e0565b6040516102799190613f9f565b60405180910390f35b34801561028e57600080fd5b506102a960048036036102a49190810190613c2f565b611a04565b6040516102bd989796959493929190613f0c565b60405180910390f35b3480156102d257600080fd5b506102db611e4b565b6040516102e89190613fba565b60405180910390f35b3480156102fd57600080fd5b50610306612043565b6040516103169493929190613eb9565b60405180910390f35b34801561032b57600080fd5b5061034660048036036103419190810190613c2f565b6123a3565b6040516103569493929190613eb9565b60405180910390f35b34801561036b57600080fd5b506103746126fa565b604051610388989796959493929190613f0c565b60405180910390f35b34801561039d57600080fd5b506103b860048036036103b39190810190613daf565b612b4a565b005b6103d460048036036103cf9190810190613c2f565b613080565b6040516103e19190613f9f565b60405180910390f35b3480156103f657600080fd5b50610411600480360361040c9190810190613d5b565b6133a9565b005b60608060608060008087945086935083518551016040519080825280601f01601f1916602001820160405280156104595781602001602082028038833980820191505090505b509250600091505b845182101561050e57848281518110151561047857fe5b9060200101517f010000000000000000000000000000000000000000000000000000000000000090047f01000000000000000000000000000000000000000000000000000000000000000283838151811015156104d157fe5b9060200101907effffffffffffffffffffffffffffffffffffffffffffffffffffffffffffff1916908160001a9053508180600101925050610461565b600090505b83518110156105c357838181518110151561052a57fe5b9060200101517f010000000000000000000000000000000000000000000000000000000000000090047f010000000000000000000000000000000000000000000000000000000000000002838287510181518110151561058657fe5b9060200101907effffffffffffffffffffffffffffffffffffffffffffffffffffffffffffff1916908160001a9053508080600101915050610513565b829550505050505092915050565b600060606000606060008060006004886040518082805190602001908083835b60208310151561061657805182526020820191506020810190506020830392506105f1565b6001836020036101000a038019825116818451168082178552505050505050905001915050908152602001604051809103902092508260000160009054906101000a900473ffffffffffffffffffffffffffffffffffffffff169650826001018054600181600116156101000203166002900480601f01602080910402602001604051908101604052809291908181526020018280546001816001161561010002031660029004801561070a5780601f106106df5761010080835404028352916020019161070a565b820191906000526020600020905b8154815290600101906020018083116106ed57829003601f168201915b505050505095508260020160009054906101000a900460ff169450826003019150600090505b8180549050811015610912576000811415610807576108008483600081548110151561075857fe5b906000526020600020018054600181600116156101000203166002900480601f0160208091040260200160405190810160405280929190818152602001828054600181600116156101000203166002900480156107f65780601f106107cb576101008083540402835291602001916107f6565b820191906000526020600020905b8154815290600101906020018083116107d957829003601f168201915b5050505050610413565b9350610905565b610846846040805190810160405280600181526020017f2c00000000000000000000000000000000000000000000000000000000000000815250610413565b935061090284838381548110151561085a57fe5b906000526020600020018054600181600116156101000203166002900480601f0160208091040260200160405190810160405280929190818152602001828054600181600116156101000203166002900480156108f85780601f106108cd576101008083540402835291602001916108f8565b820191906000526020600020905b8154815290600101906020018083116108db57829003601f168201915b5050505050610413565b93505b8080600101915050610730565b8686868696509650965096505050509193509193565b606060008060009150600090505b8180549050811015610b18576000811415610a0d57610a068383600081548110151561095e57fe5b906000526020600020018054600181600116156101000203166002900480601f0160208091040260200160405190810160405280929190818152602001828054600181600116156101000203166002900480156109fc5780601f106109d1576101008083540402835291602001916109fc565b820191906000526020600020905b8154815290600101906020018083116109df57829003601f168201915b5050505050610413565b9250610b0b565b610a4c836040805190810160405280600181526020017f2c00000000000000000000000000000000000000000000000000000000000000815250610413565b9250610b08838383815481101515610a6057fe5b906000526020600020018054600181600116156101000203166002900480601f016020809104026020016040519081016040528092919081815260200182805460018160011615610100020316600290048015610afe5780601f10610ad357610100808354040283529160200191610afe565b820191906000526020600020905b815481529060010190602001808311610ae157829003601f168201915b5050505050610413565b92505b8080600101915050610936565b829250505090565b600060606000606060008060006004600a6001016040518082805460018160011615610100020316600290048015610b8f5780601f10610b6d576101008083540402835291820191610b8f565b820191906000526020600020905b815481529060010190602001808311610b7b575b5050915050908152602001604051809103902092508260000160009054906101000a900473ffffffffffffffffffffffffffffffffffffffff169650826001018054600181600116156101000203166002900480601f016020809104026020016040519081016040528092919081815260200182805460018160011615610100020316600290048015610c635780601f10610c3857610100808354040283529160200191610c63565b820191906000526020600020905b815481529060010190602001808311610c4657829003601f168201915b505050505095508260020160009054906101000a900460ff169450826003019150600090505b8180549050811015610e6b576000811415610d6057610d5984836000815481101515610cb157fe5b906000526020600020018054600181600116156101000203166002900480601f016020809104026020016040519081016040528092919081815260200182805460018160011615610100020316600290048015610d4f5780601f10610d2457610100808354040283529160200191610d4f565b820191906000526020600020905b815481529060010190602001808311610d3257829003601f168201915b5050505050610413565b9350610e5e565b610d9f846040805190810160405280600181526020017f2c00000000000000000000000000000000000000000000000000000000000000815250610413565b9350610e5b848383815481101515610db357fe5b906000526020600020018054600181600116156101000203166002900480601f016020809104026020016040519081016040528092919081815260200182805460018160011615610100020316600290048015610e515780601f10610e2657610100808354040283529160200191610e51565b820191906000526020600020905b815481529060010190602001808311610e3457829003601f168201915b5050505050610413565b93505b8080600101915050610c89565b86868686965096509650965050505090919293565b60008060006003866040518082805190602001908083835b602083101515610ebd5780518252602082019150602081019050602083039250610e98565b6001836020036101000a038019825116818451168082178552505050505050905001915050908152602001604051809103902091506004856040518082805190602001908083835b602083101515610f2a5780518252602082019150602081019050602083039250610f05565b6001836020036101000a038019825116818451168082178552505050505050905001915050908152602001604051809103902090508360ff168260020160009054906101000a900460ff1660ff16111561119b57838260020160009054906101000a900460ff16038260020160006101000a81548160ff021916908360ff160217905550838160020160009054906101000a900460ff16018160020160006101000a81548160ff021916908360ff1602179055508160066000820160009054906101000a900473ffffffffffffffffffffffffffffffffffffffff168160000160006101000a81548173ffffffffffffffffffffffffffffffffffffffff021916908373ffffffffffffffffffffffffffffffffffffffff1602179055506001820181600101908054600181600116156101000203166002900461106f9291906137be565b506002820160009054906101000a900460ff168160020160006101000a81548160ff021916908360ff16021790555060038201816003019080546110b4929190613845565b5090505080600a6000820160009054906101000a900473ffffffffffffffffffffffffffffffffffffffff168160000160006101000a81548173ffffffffffffffffffffffffffffffffffffffff021916908373ffffffffffffffffffffffffffffffffffffffff160217905550600182018160010190805460018160011615610100020316600290046111499291906137be565b506002820160009054906101000a900460ff168160020160006101000a81548160ff021916908360ff160217905550600382018160030190805461118e929190613845565b50905050600192506111a0565b600092505b82925050509392505050565b60006111b66138b5565b600082816111c491906138f7565b506080604051908101604052803373ffffffffffffffffffffffffffffffffffffffff168152602001848152602001600060ff16815260200183805480602002602001604051908101604052809291908181526020016000905b828210156112da578382906000526020600020018054600181600116156101000203166002900480601f0160208091040260200160405190810160405280929190818152602001828054600181600116156101000203166002900480156112c65780601f1061129b576101008083540402835291602001916112c6565b820191906000526020600020905b8154815290600101906020018083116112a957829003601f168201915b50505050508152602001906001019061121e565b50505050815250905080600a60008201518160000160006101000a81548173ffffffffffffffffffffffffffffffffffffffff021916908373ffffffffffffffffffffffffffffffffffffffff1602179055506020820151816001019080519060200190611349929190613923565b5060408201518160020160006101000a81548160ff021916908360ff16021790555060608201518160030190805190602001906113879291906139a3565b509050506001816020015190806001815401808255809150509060018203906000526020600020016000909192909190915090805190602001906113cc929190613a03565b505080600482602001516040518082805190602001908083835b60208310151561140b57805182526020820191506020810190506020830392506113e6565b6001836020036101000a038019825116818451168082178552505050505050905001915050908152602001604051809103902060008201518160000160006101000a81548173ffffffffffffffffffffffffffffffffffffffff021916908373ffffffffffffffffffffffffffffffffffffffff16021790555060208201518160010190805190602001906114a1929190613923565b5060408201518160020160006101000a81548160ff021916908360ff16021790555060608201518160030190805190602001906114df9291906139a3565b50905050505050565b606060008060029150600090505b81805490508110156116d85760008114156115cd576115c68383600081548110151561151e57fe5b906000526020600020018054600181600116156101000203166002900480601f0160208091040260200160405190810160405280929190818152602001828054600181600116156101000203166002900480156115bc5780601f10611591576101008083540402835291602001916115bc565b820191906000526020600020905b81548152906001019060200180831161159f57829003601f168201915b5050505050610413565b92506116cb565b61160c836040805190810160405280600181526020017f2c00000000000000000000000000000000000000000000000000000000000000815250610413565b92506116c883838381548110151561162057fe5b906000526020600020018054600181600116156101000203166002900480601f0160208091040260200160405190810160405280929190818152602001828054600181600116156101000203166002900480156116be5780601f10611693576101008083540402835291602001916116be565b820191906000526020600020905b8154815290600101906020018083116116a157829003601f168201915b5050505050610413565b92505b80806001019150506114f6565b829250505090565b60008060008060008094506004876040518082805190602001908083835b60208310151561172357805182526020820191506020810190506020830392506116fe565b6001836020036101000a038019825116818451168082178552505050505050905001915050908152602001604051809103902093506005866040518082805190602001908083835b602083101515611790578051825260208201915060208101905060208303925061176b565b6001836020036101000a03801982511681845116808217855250505050505090500191505090815260200160405180910390209250826004019150600090505b818054905081101561194c57611932846001018054600181600116156101000203166002900480601f0160208091040260200160405190810160405280929190818152602001828054600181600116156101000203166002900480156118775780601f1061184c57610100808354040283529160200191611877565b820191906000526020600020905b81548152906001019060200180831161185a57829003601f168201915b5050505050838381548110151561188a57fe5b906000526020600020018054600181600116156101000203166002900480601f0160208091040260200160405190810160405280929190818152602001828054600181600116156101000203166002900480156119285780601f106118fd57610100808354040283529160200191611928565b820191906000526020600020905b81548152906001019060200180831161190b57829003601f168201915b50505050506136e5565b1561193f578494506119fa565b80806001019150506117d0565b8260020160019054906101000a900460ff1660ff16836004018054905010156119f657826004018790806001815401808255809150509060018203906000526020600020016000909192909190915090805190602001906119ae929190613a03565b5050836003018690806001815401808255809150509060018203906000526020600020016000909192909190915090805190602001906119ef929190613a03565b5050600194505b8494505b5050505092915050565b60006060600080600060608060008060008060058c6040518082805190602001908083835b602083101515611a4e5780518252602082019150602081019050602083039250611a29565b6001836020036101000a038019825116818451168082178552505050505050905001915050908152602001604051809103902092508260000160009054906101000a900473ffffffffffffffffffffffffffffffffffffffff169a50826001018054600181600116156101000203166002900480601f016020809104026020016040519081016040528092919081815260200182805460018160011615610100020316600290048015611b425780601f10611b1757610100808354040283529160200191611b42565b820191906000526020600020905b815481529060010190602001808311611b2557829003601f168201915b505050505099508260020160009054906101000a900460ff1698508260020160019054906101000a900460ff1697508260020160029054906101000a900460ff169650826003018054600181600116156101000203166002900480601f016020809104026020016040519081016040528092919081815260200182805460018160011615610100020316600290048015611c1d5780601f10611bf257610100808354040283529160200191611c1d565b820191906000526020600020905b815481529060010190602001808311611c0057829003601f168201915b50505050509550826004019150600090505b8180549050811015611e11576000811415611d0657611cff85836000815481101515611c5757fe5b906000526020600020018054600181600116156101000203166002900480601f016020809104026020016040519081016040528092919081815260200182805460018160011615610100020316600290048015611cf55780601f10611cca57610100808354040283529160200191611cf5565b820191906000526020600020905b815481529060010190602001808311611cd857829003601f168201915b5050505050610413565b9450611e04565b611d45856040805190810160405280600181526020017f2c00000000000000000000000000000000000000000000000000000000000000815250610413565b9450611e01858383815481101515611d5957fe5b906000526020600020018054600181600116156101000203166002900480601f016020809104026020016040519081016040528092919081815260200182805460018160011615610100020316600290048015611df75780601f10611dcc57610100808354040283529160200191611df7565b820191906000526020600020905b815481529060010190602001808311611dda57829003601f168201915b5050505050610413565b94505b8080600101915050611c2f565b8260020160039054906101000a900460ff1693508a8a8a8a8a8a8a8a9a509a509a509a509a509a509a509a50505050919395975091939597565b606060008060019150600090505b818054905081101561203b576000811415611f3057611f2983836000815481101515611e8157fe5b906000526020600020018054600181600116156101000203166002900480601f016020809104026020016040519081016040528092919081815260200182805460018160011615610100020316600290048015611f1f5780601f10611ef457610100808354040283529160200191611f1f565b820191906000526020600020905b815481529060010190602001808311611f0257829003601f168201915b5050505050610413565b925061202e565b611f6f836040805190810160405280600181526020017f2c00000000000000000000000000000000000000000000000000000000000000815250610413565b925061202b838383815481101515611f8357fe5b906000526020600020018054600181600116156101000203166002900480601f0160208091040260200160405190810160405280929190818152602001828054600181600116156101000203166002900480156120215780601f10611ff657610100808354040283529160200191612021565b820191906000526020600020905b81548152906001019060200180831161200457829003601f168201915b5050505050610413565b92505b8080600101915050611e59565b829250505090565b600060606000606060008060006003600660010160405180828054600181600116156101000203166002900480156120b25780601f106120905761010080835404028352918201916120b2565b820191906000526020600020905b81548152906001019060200180831161209e575b5050915050908152602001604051809103902092508260000160009054906101000a900473ffffffffffffffffffffffffffffffffffffffff169650826001018054600181600116156101000203166002900480601f0160208091040260200160405190810160405280929190818152602001828054600181600116156101000203166002900480156121865780601f1061215b57610100808354040283529160200191612186565b820191906000526020600020905b81548152906001019060200180831161216957829003601f168201915b505050505095508260020160009054906101000a900460ff169450826003019150600090505b818054905081101561238e5760008114156122835761227c848360008154811015156121d457fe5b906000526020600020018054600181600116156101000203166002900480601f0160208091040260200160405190810160405280929190818152602001828054600181600116156101000203166002900480156122725780601f1061224757610100808354040283529160200191612272565b820191906000526020600020905b81548152906001019060200180831161225557829003601f168201915b5050505050610413565b9350612381565b6122c2846040805190810160405280600181526020017f2c00000000000000000000000000000000000000000000000000000000000000815250610413565b935061237e8483838154811015156122d657fe5b906000526020600020018054600181600116156101000203166002900480601f0160208091040260200160405190810160405280929190818152602001828054600181600116156101000203166002900480156123745780601f1061234957610100808354040283529160200191612374565b820191906000526020600020905b81548152906001019060200180831161235757829003601f168201915b5050505050610413565b93505b80806001019150506121ac565b86868686965096509650965050505090919293565b600060606000606060008060006003886040518082805190602001908083835b6020831015156123e857805182526020820191506020810190506020830392506123c3565b6001836020036101000a038019825116818451168082178552505050505050905001915050908152602001604051809103902092508260000160009054906101000a900473ffffffffffffffffffffffffffffffffffffffff169650826001018054600181600116156101000203166002900480601f0160208091040260200160405190810160405280929190818152602001828054600181600116156101000203166002900480156124dc5780601f106124b1576101008083540402835291602001916124dc565b820191906000526020600020905b8154815290600101906020018083116124bf57829003601f168201915b505050505095508260020160009054906101000a900460ff169450826003019150600090505b81805490508110156126e45760008114156125d9576125d28483600081548110151561252a57fe5b906000526020600020018054600181600116156101000203166002900480601f0160208091040260200160405190810160405280929190818152602001828054600181600116156101000203166002900480156125c85780601f1061259d576101008083540402835291602001916125c8565b820191906000526020600020905b8154815290600101906020018083116125ab57829003601f168201915b5050505050610413565b93506126d7565b612618846040805190810160405280600181526020017f2c00000000000000000000000000000000000000000000000000000000000000815250610413565b93506126d484838381548110151561262c57fe5b906000526020600020018054600181600116156101000203166002900480601f0160208091040260200160405190810160405280929190818152602001828054600181600116156101000203166002900480156126ca5780601f1061269f576101008083540402835291602001916126ca565b820191906000526020600020905b8154815290600101906020018083116126ad57829003601f168201915b5050505050610413565b93505b8080600101915050612502565b8686868696509650965096505050509193509193565b6000606060008060006060806000806000806005600e600101604051808280546001816001161561010002031660029004801561276e5780601f1061274c57610100808354040283529182019161276e565b820191906000526020600020905b81548152906001019060200180831161275a575b5050915050908152602001604051809103902092508260000160009054906101000a900473ffffffffffffffffffffffffffffffffffffffff169a50826001018054600181600116156101000203166002900480601f0160208091040260200160405190810160405280929190818152602001828054600181600116156101000203166002900480156128425780601f1061281757610100808354040283529160200191612842565b820191906000526020600020905b81548152906001019060200180831161282557829003601f168201915b505050505099508260020160009054906101000a900460ff1698508260020160019054906101000a900460ff1697508260020160029054906101000a900460ff169650826003018054600181600116156101000203166002900480601f01602080910402602001604051908101604052809291908181526020018280546001816001161561010002031660029004801561291d5780601f106128f25761010080835404028352916020019161291d565b820191906000526020600020905b81548152906001019060200180831161290057829003601f168201915b50505050509550826004019150600090505b8180549050811015612b11576000811415612a06576129ff8583600081548110151561295757fe5b906000526020600020018054600181600116156101000203166002900480601f0160208091040260200160405190810160405280929190818152602001828054600181600116156101000203166002900480156129f55780601f106129ca576101008083540402835291602001916129f5565b820191906000526020600020905b8154815290600101906020018083116129d857829003601f168201915b5050505050610413565b9450612b04565b612a45856040805190810160405280600181526020017f2c00000000000000000000000000000000000000000000000000000000000000815250610413565b9450612b01858383815481101515612a5957fe5b906000526020600020018054600181600116156101000203166002900480601f016020809104026020016040519081016040528092919081815260200182805460018160011615610100020316600290048015612af75780601f10612acc57610100808354040283529160200191612af7565b820191906000526020600020905b815481529060010190602001808311612ada57829003601f168201915b5050505050610413565b94505b808060010191505061292f565b8260020160039054906101000a900460ff1693508a8a8a8a8a8a8a8a9a509a509a509a509a509a509a509a505050509091929394959697565b600080612b55613a83565b6003846040518082805190602001908083835b602083101515612b8d5780518252602082019150602081019050602083039250612b68565b6001836020036101000a0380198251168184511680821785525050505050509050019150509081526020016040518091039020925084860260ff168360020160009054906101000a900460ff1660ff161015156130765760008281612bf291906138f7565b50610100604051908101604052803373ffffffffffffffffffffffffffffffffffffffff1681526020018981526020018860ff1681526020018760ff1681526020018660ff16815260200160011515815260200185815260200183805480602002602001604051908101604052809291908181526020016000905b82821015612d29578382906000526020600020018054600181600116156101000203166002900480601f016020809104026020016040519081016040528092919081815260200182805460018160011615610100020316600290048015612d155780601f10612cea57610100808354040283529160200191612d15565b820191906000526020600020905b815481529060010190602001808311612cf857829003601f168201915b505050505081526020019060010190612c6d565b50505050815250905080600e60008201518160000160006101000a81548173ffffffffffffffffffffffffffffffffffffffff021916908373ffffffffffffffffffffffffffffffffffffffff1602179055506020820151816001019080519060200190612d98929190613923565b5060408201518160020160006101000a81548160ff021916908360ff16021790555060608201518160020160016101000a81548160ff021916908360ff16021790555060808201518160020160026101000a81548160ff021916908360ff16021790555060a08201518160020160036101000a81548160ff02191690831515021790555060c0820151816003019080519060200190612e38929190613923565b5060e0820151816004019080519060200190612e559291906139a3565b509050508260030181602001519080600181540180825580915050906001820390600052602060002001600090919290919091509080519060200190612e9c929190613a03565b5050600281602001519080600181540180825580915050906001820390600052602060002001600090919290919091509080519060200190612edf929190613a03565b505080600582602001516040518082805190602001908083835b602083101515612f1e5780518252602082019150602081019050602083039250612ef9565b6001836020036101000a038019825116818451168082178552505050505050905001915050908152602001604051809103902060008201518160000160006101000a81548173ffffffffffffffffffffffffffffffffffffffff021916908373ffffffffffffffffffffffffffffffffffffffff1602179055506020820151816001019080519060200190612fb4929190613923565b5060408201518160020160006101000a81548160ff021916908360ff16021790555060608201518160020160016101000a81548160ff021916908360ff16021790555060808201518160020160026101000a81548160ff021916908360ff16021790555060a08201518160020160036101000a81548160ff02191690831515021790555060c0820151816003019080519060200190613054929190613923565b5060e08201518160040190805190602001906130719291906139a3565b509050505b5050505050505050565b60008060008060008060606005886040518082805190602001908083835b6020831015156130c3578051825260208201915060208101905060208303925061309e565b6001836020036101000a038019825116818451168082178552505050505050905001915050908152602001604051809103902095508560030194508560040193508560020160029054906101000a900460ff169250600091505b838054905082101561337d57838281548110151561313757fe5b906000526020600020018054600181600116156101000203166002900480601f0160208091040260200160405190810160405280929190818152602001828054600181600116156101000203166002900480156131d55780601f106131aa576101008083540402835291602001916131d5565b820191906000526020600020905b8154815290600101906020018083116131b857829003601f168201915b50505050509050600081511415156133705761333b858054600181600116156101000203166002900480601f01602080910402602001604051908101604052809291908181526020018280546001816001161561010002031660029004801561327f5780601f106132545761010080835404028352916020019161327f565b820191906000526020600020905b81548152906001019060200180831161326257829003601f168201915b5050505050858481548110151561329257fe5b906000526020600020018054600181600116156101000203166002900480601f0160208091040260200160405190810160405280929190818152602001828054600181600116156101000203166002900480156133305780601f1061330557610100808354040283529160200191613330565b820191906000526020600020905b81548152906001019060200180831161331357829003601f168201915b505050505085610e80565b965060001515871515141561336f5760008660020160036101000a81548160ff02191690831515021790555086965061339e565b5b818060010192505061311d565b60008660020160036101000a81548160ff0219169083151502179055508696505b505050505050919050565b60006133b3613aea565b600082816133c191906138f7565b506080604051908101604052803373ffffffffffffffffffffffffffffffffffffffff1681526020018581526020018460ff16815260200183805480602002602001604051908101604052809291908181526020016000905b828210156134d6578382906000526020600020018054600181600116156101000203166002900480601f0160208091040260200160405190810160405280929190818152602001828054600181600116156101000203166002900480156134c25780601f10613497576101008083540402835291602001916134c2565b820191906000526020600020905b8154815290600101906020018083116134a557829003601f168201915b50505050508152602001906001019061341a565b50505050815250905080600660008201518160000160006101000a81548173ffffffffffffffffffffffffffffffffffffffff021916908373ffffffffffffffffffffffffffffffffffffffff1602179055506020820151816001019080519060200190613545929190613923565b5060408201518160020160006101000a81548160ff021916908360ff16021790555060608201518160030190805190602001906135839291906139a3565b509050506000816020015190806001815401808255809150509060018203906000526020600020016000909192909190915090805190602001906135c8929190613a03565b505080600382602001516040518082805190602001908083835b60208310151561360757805182526020820191506020810190506020830392506135e2565b6001836020036101000a038019825116818451168082178552505050505050905001915050908152602001604051809103902060008201518160000160006101000a81548173ffffffffffffffffffffffffffffffffffffffff021916908373ffffffffffffffffffffffffffffffffffffffff160217905550602082015181600101908051906020019061369d929190613923565b5060408201518160020160006101000a81548160ff021916908360ff16021790555060608201518160030190805190602001906136db9291906139a3565b5090505050505050565b6000816040518082805190602001908083835b60208310151561371d57805182526020820191506020810190506020830392506136f8565b6001836020036101000a038019825116818451168082178552505050505050905001915050604051809103902060001916836040518082805190602001908083835b602083101515613784578051825260208201915060208101905060208303925061375f565b6001836020036101000a03801982511681845116808217855250505050505090500191505060405180910390206000191614905092915050565b828054600181600116156101000203166002900490600052602060002090601f016020900481019282601f106137f75780548555613834565b8280016001018555821561383457600052602060002091601f016020900482015b82811115613833578254825591600101919060010190613818565b5b5090506138419190613b2c565b5090565b8280548282559060005260206000209081019282156138a45760005260206000209182015b828111156138a357828290805460018160011615610100020316600290046138939291906137be565b509160010191906001019061386a565b5b5090506138b19190613b51565b5090565b608060405190810160405280600073ffffffffffffffffffffffffffffffffffffffff16815260200160608152602001600060ff168152602001606081525090565b81548183558181111561391e5781836000526020600020918201910161391d9190613b51565b5b505050565b828054600181600116156101000203166002900490600052602060002090601f016020900481019282601f1061396457805160ff1916838001178555613992565b82800160010185558215613992579182015b82811115613991578251825591602001919060010190613976565b5b50905061399f9190613b2c565b5090565b8280548282559060005260206000209081019282156139f2579160200282015b828111156139f15782518290805190602001906139e1929190613923565b50916020019190600101906139c3565b5b5090506139ff9190613b51565b5090565b828054600181600116156101000203166002900490600052602060002090601f016020900481019282601f10613a4457805160ff1916838001178555613a72565b82800160010185558215613a72579182015b82811115613a71578251825591602001919060010190613a56565b5b509050613a7f9190613b2c565b5090565b61010060405190810160405280600073ffffffffffffffffffffffffffffffffffffffff16815260200160608152602001600060ff168152602001600060ff168152602001600060ff16815260200160001515815260200160608152602001606081525090565b608060405190810160405280600073ffffffffffffffffffffffffffffffffffffffff16815260200160608152602001600060ff168152602001606081525090565b613b4e91905b80821115613b4a576000816000905550600101613b32565b5090565b90565b613b7a91905b80821115613b765760008181613b6d9190613b7d565b50600101613b57565b5090565b90565b50805460018160011615610100020316600290046000825580601f10613ba35750613bc2565b601f016020900490600052602060002090810190613bc19190613b2c565b5b50565b600082601f8301121515613bd857600080fd5b8135613beb613be682614009565b613fdc565b91508082526020830160208301858383011115613c0757600080fd5b613c12838284614086565b50505092915050565b6000613c278235614079565b905092915050565b600060208284031215613c4157600080fd5b600082013567ffffffffffffffff811115613c5b57600080fd5b613c6784828501613bc5565b91505092915050565b60008060408385031215613c8357600080fd5b600083013567ffffffffffffffff811115613c9d57600080fd5b613ca985828601613bc5565b925050602083013567ffffffffffffffff811115613cc657600080fd5b613cd285828601613bc5565b9150509250929050565b600080600060608486031215613cf157600080fd5b600084013567ffffffffffffffff811115613d0b57600080fd5b613d1786828701613bc5565b935050602084013567ffffffffffffffff811115613d3457600080fd5b613d4086828701613bc5565b9250506040613d5186828701613c1b565b9150509250925092565b60008060408385031215613d6e57600080fd5b600083013567ffffffffffffffff811115613d8857600080fd5b613d9485828601613bc5565b9250506020613da585828601613c1b565b9150509250929050565b600080600080600060a08688031215613dc757600080fd5b600086013567ffffffffffffffff811115613de157600080fd5b613ded88828901613bc5565b9550506020613dfe88828901613c1b565b9450506040613e0f88828901613c1b565b9350506060613e2088828901613c1b565b925050608086013567ffffffffffffffff811115613e3d57600080fd5b613e4988828901613bc5565b9150509295509295909350565b613e5f81614040565b82525050565b613e6e81614060565b82525050565b6000613e7f82614035565b808452613e93816020860160208601614095565b613e9c816140c8565b602085010191505092915050565b613eb38161406c565b82525050565b6000608082019050613ece6000830187613e56565b8181036020830152613ee08186613e74565b9050613eef6040830185613eaa565b8181036060830152613f018184613e74565b905095945050505050565b600061010082019050613f22600083018b613e56565b8181036020830152613f34818a613e74565b9050613f436040830189613eaa565b613f506060830188613eaa565b613f5d6080830187613eaa565b81810360a0830152613f6f8186613e74565b905081810360c0830152613f838185613e74565b9050613f9260e0830184613e65565b9998505050505050505050565b6000602082019050613fb46000830184613e65565b92915050565b60006020820190508181036000830152613fd48184613e74565b905092915050565b6000604051905081810181811067ffffffffffffffff82111715613fff57600080fd5b8060405250919050565b600067ffffffffffffffff82111561402057600080fd5b601f19601f8301169050602081019050919050565b600081519050919050565b600073ffffffffffffffffffffffffffffffffffffffff82169050919050565b60008115159050919050565b600060ff82169050919050565b600060ff82169050919050565b82818337600083830152505050565b60005b838110156140b3578082015181840152602081019050614098565b838111156140c2576000848401525b50505050565b6000601f19601f83011690509190505600a265627a7a7230582006df0076acd43227afde2ffbac81eb2ebda06e1fd5c73ccdca8527f0f98d66186c6578706572696d656e74616cf50037",
  "source": "pragma solidity ^0.4.0; \r\npragma experimental ABIEncoderV2;\r\ncontract Plant{\r\n    \r\n    struct Joiner{\r\n        address  _joinerAddress;\r\n        string  _joinerName;\r\n        uint8 _allTime;\r\n        string[] _projects;\r\n    }\r\n    \r\n    struct Publisher{\r\n        address  _publisherAddress;\r\n        string _publisherName;\r\n        uint8  _allTime;\r\n        string[] _projects;\r\n    }\r\n    \r\n    struct Project{\r\n        address _projectAddress;\r\n        string _projectName;\r\n    //\r\n        uint8  _projectTime;\r\n    //\r\n        uint8  _maxCount;\r\n    //\r\n        uint8  _maxJobTime;\r\n    //\r\n        bool  _isOpen;\r\n      \r\n       string  _publisher;\r\n       string []  _joiners;\r\n    }\r\n    \r\n    string [] private _publishersArray;\r\n    string [] private _joinersArray;\r\n    string [] private _projectsArray;\r\n    mapping (string=>Publisher) private  _publishers;\r\n    mapping (string=>Joiner)  private _joiners;\r\n    mapping (string=>Project) private _projects;\r\n    \r\n    Publisher _publisher;\r\n    Joiner _joiner;\r\n    Project _project;\r\n    \r\n    function addNewJoiner(string name) public {\r\n          string [] storage projecets;\r\n           projecets.length = 0; \r\n        Joiner memory joiner = Joiner(msg.sender,name,0,projecets );\r\n        _joiner = joiner;\r\n        _joinersArray.push(joiner._joinerName);\r\n        _joiners[joiner._joinerName] = joiner;\r\n      \r\n    }\r\n    \r\n    function addNewPublisher(string name,uint8 times) public{\r\n        \r\n         string [] storage projecets  ;\r\n         projecets.length = 0;\r\n        Publisher memory publisher =  Publisher(msg.sender,name,times,projecets);\r\n        _publisher = publisher;\r\n        _publishersArray.push(publisher._publisherName);\r\n       _publishers[publisher._publisherName] = publisher;\r\n       \r\n    }\r\n    \r\n    function addNewProject(string name,uint8 projectTime,uint8 count,uint8 jobTime,string publisher)public{\r\n        \r\n       \r\n         Publisher storage p = _publishers[publisher];\r\n         \r\n         if(p._allTime >= count*jobTime)\r\n         {\r\n              string [] storage joiners ;\r\n             joiners.length  = 0;\r\n            Project memory project =  Project(msg.sender,name,projectTime,count,jobTime,true, publisher, joiners);\r\n            _project = project;\r\n             p._projects.push(project._projectName);\r\n        \r\n        \r\n            _projectsArray.push(project._projectName);\r\n            _projects[project._projectName] = project;\r\n         }\r\n    }\r\n\r\n    \r\n   \r\n    function showAProject(string aname)public  view  returns (address a,string name,uint8 projectTime,uint8 projectMaxCount,uint8 projectJobTime,string publisher,string str,bool isOpen){\r\n       \r\n        Project storage proJect = _projects[aname];\r\n        a =  proJect._projectAddress;\r\n        name =  proJect._projectName;\r\n        projectTime = proJect._projectTime;\r\n        projectMaxCount = proJect._maxCount;\r\n        projectJobTime = proJect._maxJobTime;\r\n        publisher =  proJect._publisher;\r\n        string[] storage joiners =  proJect._joiners;\r\n        for(uint i =0 ;i<joiners.length;i++){\r\n\r\n           if(i == 0){\r\n                str = stringAdd(str,joiners[0]);\r\n            }else{\r\n                str=stringAdd(str,\",\");\r\n               str = stringAdd(str,joiners[i]);\r\n            }\r\n           \r\n       }\r\n        isOpen  = proJect._isOpen;\r\n        return(a,name,projectTime, projectMaxCount,projectJobTime, publisher,str,isOpen);\r\n    }\r\n    \r\n      function showProject()public view returns (address a,string name,uint8 projectTime,uint8 projectMaxCount,uint8 projectJobTime,string publisher,string str,bool isOpen){\r\n       \r\n        Project storage proJect = _projects[_project._projectName];\r\n        a =  proJect._projectAddress;\r\n        name =  proJect._projectName;\r\n        projectTime = proJect._projectTime;\r\n        projectMaxCount = proJect._maxCount;\r\n        projectJobTime = proJect._maxJobTime;\r\n        publisher =  proJect._publisher;\r\n        string[] storage joiners =  proJect._joiners;\r\n         \r\n        for(uint i =0 ;i<joiners.length;i++){\r\n            if(i == 0){\r\n                str = stringAdd(str,joiners[0]);\r\n            }else{\r\n                str=stringAdd(str,\",\");\r\n               str = stringAdd(str,joiners[i]);\r\n            }\r\n       }\r\n        isOpen  = proJect._isOpen;\r\n        return(a,name,projectTime, projectMaxCount,projectJobTime, publisher,str,isOpen);\r\n    }\r\n     \r\n    \r\n    function addInProject(string joiner,string project) public  returns(bool isJoined){\r\n       \r\n        isJoined =false;\r\n        \r\n        Joiner storage j = _joiners[joiner];\r\n        \r\n        Project storage proJect = _projects[project];\r\n        string [] storage jo = proJect._joiners;\r\n        for(uint i = 0;i<jo.length;i++){\r\n            if(hashCompareInternal(j._joinerName,jo[i])){\r\n                return isJoined;\r\n            }\r\n        }\r\n        \r\n        if(proJect._joiners.length < proJect._maxCount){\r\n        \r\n             proJect._joiners.push(joiner);\r\n             j._projects.push(project);\r\n             isJoined = true;\r\n            \r\n        }\r\n        return isJoined;\r\n        \r\n    }\r\n    \r\n    function finishProject(string project) public payable returns(bool isSend){\r\n        \r\n        Project storage proJect = _projects[project];\r\n        \r\n        string storage publisher = proJect._publisher;\r\n        string[] storage joiners  = proJect._joiners;\r\n        uint8 jobtime = proJect._maxJobTime;\r\n        for(uint i =0;i<joiners.length;i++){\r\n            bytes memory tempEmptyStringTest = bytes(joiners[i]);\r\n            if(tempEmptyStringTest.length != 0){\r\n            isSend =  send(publisher,joiners[i],jobtime);\r\n            if(isSend == false){\r\n                proJect._isOpen=false;\r\n                return isSend;\r\n            }\r\n                \r\n            }\r\n        }\r\n        proJect._isOpen=false;\r\n        return isSend;\r\n    }\r\n    \r\n     \r\n    function showJoiner() public view  returns(address a,string name, uint8 times,string str){\r\n        Joiner storage j = _joiners[_joiner._joinerName];\r\n       a = j._joinerAddress;\r\n       name=j._joinerName;\r\n       times = j._allTime;\r\n       string [] storage projects= j._projects;\r\n       \r\n       for(uint i =0 ;i<projects.length;i++){\r\n           \r\n           if(i == 0){\r\n                str = stringAdd(str,projects[0]);\r\n            }else{\r\n                str=stringAdd(str,\",\");\r\n               str = stringAdd(str,projects[i]);\r\n            }\r\n           \r\n       }\r\n\r\n        return(a,name,times,str);\r\n    }\r\n    \r\n    \r\n     function showAJoiner(string aname) public view  returns(address a,string name, uint8 times,string str){\r\n       Joiner storage j = _joiners[aname];\r\n      a = j._joinerAddress;\r\n       name=j._joinerName;\r\n       times = j._allTime;\r\n       string [] storage projects= j._projects;\r\n       \r\n       for(uint i =0 ;i<projects.length;i++){\r\n          \r\n          if(i == 0){\r\n                str = stringAdd(str,projects[0]);\r\n            }else{\r\n                str=stringAdd(str,\",\");\r\n               str = stringAdd(str,projects[i]);\r\n            }\r\n           \r\n       }\r\n\r\n        return(a,name,times,str);\r\n    }\r\n    \r\n    function showAPublisher(string add)public view  returns(address a,string name,uint8 times,string str){\r\n       Publisher storage p = _publishers[add];\r\n        a = p._publisherAddress;\r\n       name = p._publisherName;\r\n        times =p._allTime;\r\n         string [] storage projects= p._projects;\r\n        for(uint i =0 ;i<projects.length;i++){\r\n         \r\n            if(i == 0){\r\n                str = stringAdd(str,projects[0]);\r\n            }else{\r\n                str=stringAdd(str,\",\");\r\n               str = stringAdd(str,projects[i]);\r\n            }\r\n           \r\n       }\r\n         \r\n        return(a,name,times,str);\r\n    }\r\n    \r\n    function showPublisher()public view  returns(address a,string name,uint8 times,string  str){\r\n        Publisher storage p = _publishers[_publisher._publisherName];\r\n        a = p._publisherAddress;\r\n        name = p._publisherName;\r\n        times =p._allTime;\r\n         string [] storage projects= p._projects;\r\n        for(uint i =0 ;i<projects.length;i++){\r\n        \r\n           if(i == 0){\r\n                str = stringAdd(str,projects[0]);\r\n            }else{\r\n                str=stringAdd(str,\",\");\r\n               str = stringAdd(str,projects[i]);\r\n            }\r\n       }\r\n         \r\n        return(a,name,times,str);\r\n    }\r\n    \r\n    \r\n  function send(string fromP,string toJ,uint8 times) public payable returns(bool isSend){\r\n       \r\n      Publisher storage publisher = _publishers[fromP];\r\n      Joiner storage joiner = _joiners[toJ];\r\n      if(publisher._allTime > times){\r\n          publisher._allTime= publisher._allTime - times;\r\n          joiner._allTime= joiner._allTime+times;\r\n          _publisher = publisher;\r\n          _joiner = joiner;\r\n          isSend = true;\r\n      }else{\r\n          isSend = false;\r\n      }\r\n      return isSend; \r\n       \r\n  }\r\n   \r\n   function showAllJoiners()public view returns (string  str){\r\n    string[]   allJoiners  = _joinersArray;\r\n       for(uint i =0 ;i< allJoiners.length;i++){\r\n           if(i == 0){\r\n                str = stringAdd(str, allJoiners[0]);\r\n            }else{\r\n                str=stringAdd(str,\",\");\r\n               str = stringAdd(str, allJoiners[i]);\r\n            }\r\n       }\r\n       \r\n       return str;\r\n   }\r\n    \r\n    function showAllPublishers()public view returns (string  str) {\r\n      string[] allPublishers = _publishersArray;\r\n        for(uint i =0 ;i< allPublishers.length;i++){\r\n           if(i == 0){\r\n                str = stringAdd(str, allPublishers[0]);\r\n            }else{\r\n                str=stringAdd(str,\",\");\r\n               str = stringAdd(str, allPublishers[i]);\r\n            }\r\n       }\r\n       return str;\r\n   }\r\n   \r\n   function showAllProjects()public view returns (string  str) {\r\n     string[] allProjects = _projectsArray;\r\n       for(uint i =0 ;i< allProjects.length;i++){\r\n           if(i == 0){\r\n                str = stringAdd(str, allProjects[0]);\r\n            }else{\r\n                str=stringAdd(str,\",\");\r\n               str = stringAdd(str, allProjects[i]);\r\n            }\r\n       }\r\n       return str;\r\n   }\r\n   \r\n   function stringAdd(string a, string b)public pure returns(string){\r\n    bytes memory _a = bytes(a);\r\n    bytes memory _b = bytes(b);\r\n    bytes memory res = new bytes(_a.length + _b.length);\r\n    for(uint i = 0;i < _a.length;i++)\r\n        res[i] = _a[i];\r\n    for(uint j = 0;j < _b.length;j++)\r\n        res[_a.length+j] = _b[j];  \r\n    return string(res);\r\n    }\r\n    \r\n    function hashCompareInternal(string a, string b) internal returns (bool) {\r\n        return keccak256(a) == keccak256(b);\r\n    }\r\n    \r\n}",
  "sourcePath": "C:/Users/zhangxiaofan/Desktop/SmartContract/demo/contracts/Plant.sol",
  "compiler": {
    "name": "solc",
    "version": "0.4.24+commit.e67f0147.Emscripten.clang"
  },
  "schemaVersion": "3.0.0",
  "updatedAt": "2018-12-30T13:10:07.415Z",
  "devdoc": {
    "methods": {}
  },
  "userdoc": {
    "methods": {}
  }
}